:020000040800F2
:1000000000200020C50000080D0100080D010008B7
:1000100000000000000000000000000000000000E0
:100020000000000000000000000000000D010008BA
:1000300000000000000000000D010008610E000833
:100040000D0100080D0100080D0100080D01000858
:100050000D0100080D0100080D0100080D01000848
:100060000D0100080D0100080D0100080D01000838
:100070000D0100080D0100080D0100080D01000828
:100080000D0100080D010008000000000D0100082E
:100090000D0100080D0100080D0100080D01000808
:1000A0000D0100080D0100080D0100080D010008F8
:1000B0000D010008000000000D0100080000000014
:0400C0005FF808F1EC
:1000C400002103E00B4B5B58435004310A480B4BAF
:1000D40042189A42F6D30A4A03E000231360042329
:1000E400D218084B9A42F8D300F010F800F02AFE18
:1000F40070470000340F00080000002000000020BA
:100104000000002004000020FEE7000080B500AFDE
:100114001B4B1B4A126801210A431A60184B184AE8
:100124005168184A0A405A60154B154A1168164A14
:100134000A401A60124B124A1168144A0A401A60A3
:100144000F4B0F4A5168124A0A405A600C4B0C4A32
:10015400D26A0F218A43DA62094B094A116B0D4AAC
:100164000A401A63064B064A526B01218A435A63BA
:10017400034B00229A6000F00FF8BD4680BDC046D4
:10018400001002400CB8FFF8FFFFF6FEFFFFFBFF74
:10019400FFFFC0FFACFEFFFF80B582B000AF0023BD
:1001A4007B6000233B60314B304A12688021490256
:1001B4000A431A602D4B1A6880239B0213403B604C
:1001C4007B6801337B603B68002B04D17A68A023F1
:1001D400DB009A42EED1254B1A6880239B02134020
:1001E40002D001233B6001E000233B603B68012B0C
:1001F40038D11F4B11221A601C4B1C4A52685A609A
:100204001A4B1A4A52685A60184B184A5168194ACC
:100214000A405A60154B154A5268882149030A431B
:100224005A60124B114A1268802149040A431A6029
:10023400C0460E4B1A6880239B041340F9D00B4B25
:100244000A4A526803218A435A60084B074A526893
:1002540002210A435A60C046044B5A680C231340D7
:10026400082BF9D1BD4602B080BDC0460010024043
:1002740000200240FFFFC0FF80B582B000AF78606D
:100284000A1CFB1C1A707A68174B134002D17B6856
:10029400002B05D1154A164B101C191C00F0D4FD77
:1002A400FB1C1B78002B09D0FB1C1B78012B05D0F1
:1002B4000E4A104B101C191C00F0C6FDFB1C1B78C9
:1002C400002B06D00C4B0C4A51697A680A435A61D8
:1002D40006E0094B084A52697968C9430A405A61E1
:1002E400BD4602B080BDC046AAFFA1FE740E000840
:1002F4008D0400008E0400000010024080B582B01E
:1003040000AF78600A1CFB1C1A707A68174B134004
:1003140002D17B68002B06D1154A9B23DB00101CFD
:10032400191C00F091FDFB1C1B78002B09D0FB1C51
:100334001B78012B05D00E4A0E4B101C191C00F023
:1003440083FDFB1C1B78002B06D00B4B0A4AD1699A
:100354007A680A43DA6106E0074B074AD26979688A
:10036400C9430A40DA61BD4602B080BDECB69D8F38
:10037400740E0008D90400000010024080B586B055
:1003840000AF7860396000237B6100233B61002368
:10039400FB607A689023DB059A4214D07A68794B23
:1003A4009A4210D07A68784B9A420CD07A68774B8C
:1003B4009A4208D07A68764B9A4204D0754B181C3E
:1003C400A72100F041FD3B681B68002B04D1714B51
:1003D400181CA82100F038FD3B681B79002B10D0B5
:1003E4003B681B79012B0CD03B681B79022B08D08E
:1003F4003B681B79032B04D0664B181CA92100F021
:1004040023FD3B68DB79002B0CD03B68DB79012BA7
:1004140008D03B68DB79022B04D05E4B181CAA2160
:1004240000F012FD00237B61A4E07B690122101C13
:100434009840031C3B613B681B683A691340FB60AE
:10044400FA683B699A4200D091E03B681B79012B22
:1004540003D03B681B79022B56D13B685B79012B97
:100464000CD03B685B79022B08D03B685B79032B8B
:1004740004D0484B181CBA2100F0E6FC7B689B684A
:100484007A6952000321081C9040021CD2431A408E
:100494007B689A607B689A683B685B79191C7B6906
:1004A4005B00081C9840031C1A437B689A603B68F5
:1004B4009B79002B08D03B689B79012B04D0354BEA
:1004C400181CC12100F0C0FC7B689B889BB27A6930
:1004D40092B20121081C9040021C92B2D24392B203
:1004E40013409AB27B689A807B689B889AB23B6877
:1004F4009B79191C7B699BB2081C9840031C9BB216
:1005040013439AB27B689A807B681B687A695200AD
:100514000321081C9040021CD2431A407B681A60D5
:100524007B681A683B681B79191C7B695B00081C93
:100534009840031C1A437B681A607B68DB687A69FD
:1005440092B252000321081C9040021CD2431A406C
:100554007B68DA607B68DA683B68DB79191C7B6945
:100564005B00081C9840031C1A437B68DA607B69B3
:1005740001337B617B690F2B00D856E7BD4606B07B
:1005840080BDC0460004004800080048000C004834
:1005940000140048B40E000890B585B000AF786030
:1005A400BB1C19807B1C1A700023FB600023BB60FA
:1005B4007A689023DB059A420AD07A685C4B9A42A7
:1005C40006D05C4AEF235B00101C191C00F03CFCB5
:1005D400BB1C1B88002B42D0BB1C1B88012B3ED0AC
:1005E400BB1C1B88022B3AD0BB1C1B88032B36D0A8
:1005F400BB1C1B88042B32D0BB1C1B88052B2ED0A4
:10060400BB1C1B88062B2AD0BB1C1B88072B26D09F
:10061400BB1C1B88082B22D0BB1C1B88092B1ED09B
:10062400BB1C1B880A2B1AD0BB1C1B880B2B16D097
:10063400BB1C1B880C2B12D0BB1C1B880D2B0ED093
:10064400BB1C1B880E2B0AD0BB1C1B880F2B06D08F
:10065400384AE023FF33101C191C00F0F5FB7B1C07
:100664001B78002B22D07B1C1B78012B1ED07B1CFB
:100674001B78022B1AD07B1C1B78032B16D07B1CF7
:100684001B78042B12D07B1C1B78052B0ED07B1CF3
:100694001B78062B0AD07B1C1B78072B06D0254A17
:1006A400F0235B00101C191C00F0CEFB7B1C1A7895
:1006B400BB1C198807230B409B00111C99400B1C81
:1006C400FB60BB1C1B88DB089BB21A1CBB1C1B8871
:1006D400DB089BB2191C7B6808318900CB58B91C14
:1006E40008880721014089000F20041C8C40211C2C
:1006F400C94319407B6808329200D150BB1C1B8847
:10070400DB089BB21A1C7B6808329200D258FB6843
:100714001343BB60BB1C1B88DB089BB21A1C7B68A1
:1007240008329200B968D150BD4605B090BDC046AC
:1007340000040048B40E000880B584B000AF7860AF
:1007440039603B1C0E3300221A807A685C4B9A4253
:1007540023D07A688023DB059A421ED07A68594BED
:100764009A421AD07A68584B9A4216D07A68574BF4
:100774009A4212D07A68564B9A420ED07A68554BF8
:100784009A420AD07A68544B9A4206D0534A0223BA
:10079400FF33101C191C00F057FB3B685B88002BCF
:1007A40016D03B685B88102B12D03B685B88202BEB
:1007B4000ED03B685B88402B0AD03B685B88602B7B
:1007C40006D0464A81235B00101C191C00F03CFB38
:1007D4003B681B89002B12D03B681A8980235B007D
:1007E4009A420CD03B681A8980239B009A4206D017
:1007F4003A4A0423FF33101C191C00F025FB3B1C50
:100804000E337A6812881A807A682D4B9A4208D07F
:100814007A688023DB059A4203D07A68294B9A428E
:1008240010D13B1C0E333A1C0E32128870218A43BD
:100834001A803B6859883B1C0E333A1C0E321288CE
:100844000A431A807A68204B9A4210D03B1C0E331C
:100854003A1C0E321188224A0A401A803B681989D0
:100864003B1C0E333A1C0E3212880A431A807B68F2
:100874003A1C0E3212881A803B685A687B68DA6226
:100884003B681A887B681A857A680D4B9A420BD0AC
:100894007A680F4B9A4207D07A680E4B9A4203D07B
:1008A4007A680D4B9A4204D13B689B7A1A1C7B6888
:1008B4001A867B6801229A82BD4604B080BDC04678
:1008C400002C0140000400400010004000200040C3
:1008D400004001400044014000480140F40E00087B
:1008E400FFFCFFFF80B582B000AF78600A1CFB1CE0
:1008F4001A707A68254B9A4222D07A688023DB05E5
:100904009A421DD07A68224B9A4219D07A68214BB8
:100914009A4215D07A68204B9A4211D07A681F4BBC
:100924009A420DD07A681E4B9A4209D07A681D4BC0
:100934009A4205D01C4A1D4B101C191C00F084FA65
:10094400FB1C1B78002B09D0FB1C1B78012B05D04A
:10095400154A174B101C191C00F076FAFB1C1B7867
:10096400002B08D07B681B889BB2012213439AB2E8
:100974007B681A8007E07B681B889BB20122934343
:100984009AB27B681A80BD4602B080BD002C01403B
:1009940000040040001000400020004000400140DE
:1009A4000044014000480140F40E000831020000F8
:1009B4003202000080B582B000AF78600A1CFB1CD4
:1009C4001A707A681F4B9A4211D07A681E4B9A4269
:1009D4000DD07A681D4B9A4209D07A681C4B9A4212
:1009E40005D01C4A1C4B101C191C00F02DFAFB1CD2
:1009F4001B78002B09D0FB1C1B78012B05D0154A52
:100A0400164B101C191C00F01FFAFB1C1B78002B42
:100A14000AD07A684423D35A9BB2114A134399B239
:100A24007A684423D15209E07A684423D35A9BB2AA
:100A34005B045B0C99B27A684423D152BD4602B080
:100A440080BDC046002C01400040014000440140EC
:100A540000480140F40E00089602000097020000CE
:100A64000080FFFF80B584B000AF786039603B1C24
:100A74000A3300221A803B1C0E3300221A803B1CCE
:100A84000C3300221A807A689F4B9A420ED07A68FF
:100A94008023DB059A4209D07A689C4B9A4205D0A0
:100AA4009B4A9C4B101C191C00F0CEF93B681B8818
:100AB400002B19D03B681B88102B15D03B681B8872
:100AC400202B11D03B681B88302B0DD03B681B8832
:100AD400602B09D03B681B88702B05D08C4A8E4B49
:100AE400101C191C00F0B0F93B685B88002B09D07E
:100AF4003B685B88012B05D0854A884B101C191C68
:100B040000F0A2F93B689B89002B0AD03B689B89C3
:100B1400022B06D07E4AE2239B00101C191C00F015
:100B240093F97B681B8C9AB27D4B13409AB27B6815
:100B34001A843B1C0E337A68128C1A803B1C0C33CB
:100B44007A6892881A803B1C0A337A68928B1A80DE
:100B54003B1C0A333A1C0A32128870218A431A80D9
:100B64003B1C0A333A1C0A32128803218A431A8036
:100B74003B6819883B1C0A333A1C0A3212880A4320
:100B84001A803B1C0E333A1C0E321188654A0A4007
:100B94001A803B689B891B0299B23B1C0E333A1C9A
:100BA4000E3212880A431A803B685B881B0299B292
:100BB4003B1C0E333A1C0E3212880A431A807A68A0
:100BC400514B9A4200D088E03B689B88002B0AD0A6
:100BD4003B689B88042B06D04D4AE9239B00101CDC
:100BE400191C00F031F93B68DB89002B09D03B6804
:100BF400DB89082B05D0464A4B4B101C191C00F00E
:100C040023F93B685A8A80239B009A4209D03B68A7
:100C14005B8A002B05D03E4A444B101C191C00F083
:100C240013F93B681A8A80235B009A4209D03B6817
:100C34001B8A002B05D0364A3D4B101C191C00F0B2
:100C440003F93B1C0E333A1C0E321188394A0A4010
:100C54001A803B68DB891B0299B23B1C0E333A1C99
:100C64000E3212880A431A803B1C0E333A1C0E3291
:100C74001188314A0A401A803B689B881B0299B24A
:100C84003B1C0E333A1C0E3212880A431A803B1C5A
:100C94000C333A1C0C321188284A0A401A803B1C37
:100CA4000C333A1C0C321188254A0A401A803B68DE
:100CB4001B8A1B0199B23B1C0C333A1C0C32128860
:100CC4000A431A803B685B8A1B0199B23B1C0C33B4
:100CD4003A1C0C3212880A431A807B683A1C0C3284
:100CE40012889A807B683A1C0A3212889A833B687D
:100CF4009A687B68DA637B683A1C0E3212881A841D
:100D0400BD4604B080BDC046002C01400004004034
:100D1400F40E00088503000086030000870300002A
:100D2400FFFEFFFFFFFDFFFFA5030000A603000079
:100D3400A7030000FFF7FFFFFFFBFFFFFFEFFFFF2D
:100D4400FFDFFFFF80B58AB000AF00F083F8022018
:100D54000121FFF7D3FA80231B03181C0121FFF79D
:100D64008BFA3B1C203302221A713B1C20330022D5
:100D74009A713B1C2033C02292001A603B1C203322
:100D84000122DA713B1C203303225A712C4A3B1C8A
:100D94002033101C191CFFF7F1FA294B181C0821E9
:100DA4000122FFF7F9FB264B181C09210122FFF74A
:100DB400F3FB3B1C143300221A803B1C1433002227
:100DC4005A803B1C1433FA2252005A603B1C1433E1
:100DD40000221A813B1C143300229A72194A3B1CCC
:100DE4001433101C191CFFF7A7FC3B1C60221A804B
:100DF4003B1C01225A803B1C04229A803B1C022289
:100E04009A813B1C0022DA813B1C802252001A8208
:100E14003B1C00225A823B1CC82252009A60094A99
:100E24003B1C101C191CFFF71DFE064B181C01214E
:100E3400FFF758FD034B181C0121FFF7BBFDFEE72C
:100E4400000800480004004080B582B000AF78601C
:100E54003960FEE780B500AFBD4680BD80B500AF08
:100E6400024B01221A70BD4680BDC046000000201E
:100E74002E2E2F2E2E2F6578742D7372632F5354BC
:100E84004D3332463078785F5374645065726970BC
:100E9400685F4472697665722F7372632F73746D21
:100EA4003332663078785F7263632E63000000002B
:100EB4002E2E2F2E2E2F6578742D7372632F53547C
:100EC4004D3332463078785F53746450657269707C
:100ED400685F4472697665722F7372632F73746DE1
:100EE4003332663078785F6770696F2E6300000074
:100EF4002E2E2F2E2E2F6578742D7372632F53543C
:100F04004D3332463078785F53746450657269703B
:100F1400685F4472697665722F7372632F73746DA0
:100F24003332663078785F74696D2E630000000098
:04000005080000C52A
:00000001FF
