:020000040800F2
:100000000020002065010008052700080D270008D2
:1000100000000000000000000000000000000000E0
:10002000000000000000000000000000152700088C
:1000300000000000000000001D2700083129000812
:10004000AD010008AD010008AD010008AD010008D8
:10005000AD010008AD010008AD010008AD010008C8
:10006000AD010008592A0008D92A0008CD2B000844
:10007000AD010008AD010008AD010008AD010008A8
:10008000AD010008AD01000800000000AD0100084E
:10009000AD010008AD010008AD010008AD01000888
:1000A000AD010008AD010008AD010008152E0008E3
:1000B000AD01000800000000AD01000800000000D4
:0400C0005FF808F1EC
:1000C400002934D00123002210B488422CD3012407
:1000D4002407A14204D2814202D209011B01F8E79C
:1000E400E400A14204D2814202D249005B00F8E755
:1000F400884201D3401A1A434C08A04202D3001B81
:100104005C0822438C08A04202D3001B9C082243B3
:10011400CC08A04202D3001BDC082243002803D0F1
:100124001B0901D00909E3E7101C10BC7047002823
:1001340001D00020C04307B4024802A14018029035
:1001440003BDC046190000000029F0D003B5FFF735
:10015400B9FF0EBC4243891A1847C0467047C046CF
:10016400002103E00B4B5B58435004310A480B4B0E
:1001740042189A42F6D30A4A03E000231360042388
:10018400D218084B9A42F8D300F010F802F0A0FA03
:1001940070470000DC3A0008000000201000002036
:1001A4001000002038010020FEE7000080B500AFF9
:1001B4001B4B1B4A126801210A431A60184B184A48
:1001C4005168184A0A405A60154B154A1168164A74
:1001D4000A401A60124B124A1168144A0A401A6003
:1001E4000F4B0F4A5168124A0A405A600C4B0C4A92
:1001F400D26A0F218A43DA62094B094A116B0D4A0C
:100204000A401A63064B064A526B01218A435A6319
:10021400034B00229A6000F00FF8BD4680BDC04633
:10022400001002400CB8FFF8FFFFF6FEFFFFFBFFD3
:10023400FFFFC0FFACFEFFFF80B582B000AF00231C
:100244007B6000233B60314B304A126880214902B5
:100254000A431A602D4B1A6880239B0213403B60AB
:100264007B6801337B603B68002B04D17A68A02350
:10027400DB009A42EED1254B1A6880239B0213407F
:1002840002D001233B6001E000233B603B68012B6B
:1002940038D11F4B11221A601C4B1C4A52685A60F9
:1002A4001A4B1A4A52685A60184B184A5168194A2C
:1002B4000A405A60154B154A5268882149030A437B
:1002C4005A60124B114A1268802149040A431A6089
:1002D400C0460E4B1A6880239B041340F9D00B4B85
:1002E4000A4A526803218A435A60084B074A5268F3
:1002F40002210A435A60C046044B5A680C23134037
:10030400082BF9D1BD4602B080BDC04600100240A2
:1003140000200240FFFFC0FF80B588B000AF7860C6
:100324000023FB610023BB6100237B6100233B614D
:100334000023FB60654B5A680C231340FB61FB6987
:10034400042B07D0082B09D0002B30D17B68604ADE
:100354001A6030E07B685E4A1A602CE05B4B5A6896
:10036400F0239B031340BB61584B5A6880235B0204
:1003740013407B61BB699B0C0233BB617B69002B1F
:1003840005D1BB69534A5A437B681A6013E04F4B4B
:10039400DA6A0F23134001333B614D483969FFF793
:1003A4008FFE031CBA695A437B681A6003E07B68BA
:1003B400474A1A60C046454B5A68F0231340FB6114
:1003C400FB691B09FB61444AFB69D3181B78DBB248
:1003D400FB607B681A68FB68DA407B685A603B4BB9
:1003E4005A68E023DB001340FB61FB691B0AFB61D5
:1003F400394AFB69D3181B78DBB2FB607B685A6807
:10040400FB68DA407B689A60304B1A6B80235B0090
:10041400134003D17B68314ADA6010E02B4B5A68F1
:100424008023DB01134005D17B689B685A087B68F5
:10043400DA6004E07B689B689A087B68DA60234B87
:100444001A6B4023134003D17B68254A1A6103E0E9
:100454007B68802212021A611C4B1A6B1023134012
:1004640003D17B681A4A5A6103E07B681A687B6887
:100474005A61164B1A6B0323134004D17B689A68A4
:100484007B689A611EE0114B1A6B03231340012B06
:1004940004D17B681A687B689A6113E00B4B1A6B72
:1004A40003231340022B04D17B68802212029A6139
:1004B40008E0064B1A6B03231340032B02D17B681D
:1004C400034A9A61BD4608B080BDC0460010024090
:1004D40000127A0000093D0000000020809FD50032
:1004E4001280000080B582B000AF78600A1CFB1C4B
:1004F4001A707A68174B134002D17B68002B05D120
:10050400154A164B101C191C02F0F4F8FB1C1B783E
:10051400002B09D0FB1C1B78012B05D00E4A104B75
:10052400101C191C02F0E6F8FB1C1B78002B06D0EB
:100534000C4B0C4A51697A680A435A6106E0094B2C
:10054400084A52697968C9430A405A61BD4602B0F3
:1005540080BDC046AAFFA1FE1C3900088D0400001E
:100564008E0400000010024080B582B000AF7860B5
:100574000A1CFB1C1A707A68174B134002D17B6863
:10058400002B05D1154A164B101C191C02F0B2F8A9
:10059400FB1C1B78002B09D0FB1C1B78012B05D0FE
:1005A4000E4A104B101C191C02F0A4F8FB1C1B78FB
:1005B400002B06D00C4B0C4A91697A680A439A6165
:1005C40006E0094B084A92697968C9430A409A616E
:1005D400BD4602B080BDC046FEA5B8FF1C39000868
:1005E400B1040000B20400000010024080B586B0DF
:1005F40000AF7860396000237B6100233B610023F6
:10060400FB607A689023DB059A4214D07A68794BB0
:100614009A4210D07A68784B9A420CD07A68774B19
:100624009A4208D07A68764B9A4204D0754B181CCB
:10063400A72102F05FF83B681B68002B04D1714BC3
:10064400181CA82102F056F83B681B79002B10D027
:100654003B681B79012B0CD03B681B79022B08D01B
:100664003B681B79032B04D0664B181CA92102F0AC
:1006740041F83B68DB79002B0CD03B68DB79012B1C
:1006840008D03B68DB79022B04D05E4B181CAA21EE
:1006940002F030F800237B61A4E07B690122101C86
:1006A4009840031C3B613B681B683A691340FB603C
:1006B400FA683B699A4200D091E03B681B79012BB0
:1006C40003D03B681B79022B56D13B685B79012B25
:1006D4000CD03B685B79022B08D03B685B79032B19
:1006E40004D0484B181CBA2102F004F87B689B68BC
:1006F4007A6952000321081C9040021CD2431A401C
:100704007B689A607B689A683B685B79191C7B6993
:100714005B00081C9840031C1A437B689A603B6882
:100724009B79002B08D03B689B79012B04D0354B77
:10073400181CC12101F0DEFF7B689B889BB27A699B
:1007440092B20121081C9040021C92B2D24392B290
:1007540013409AB27B689A807B689B889AB23B6804
:100764009B79191C7B699BB2081C9840031C9BB2A3
:1007740013439AB27B689A807B681B687A6952003B
:100784000321081C9040021CD2431A407B681A6063
:100794007B681A683B681B79191C7B695B00081C21
:1007A4009840031C1A437B681A607B68DB687A698B
:1007B40092B252000321081C9040021CD2431A40FA
:1007C4007B68DA607B68DA683B68DB79191C7B69D3
:1007D4005B00081C9840031C1A437B68DA607B6941
:1007E40001337B617B690F2B00D856E7BD4606B009
:1007F40080BDC0460004004800080048000C0048C2
:10080400001400485C39000890B585B000AF7860EA
:10081400BB1C19807B1C1A700023FB600023BB6087
:100824007A689023DB059A420AD07A685C4B9A4234
:1008340006D05C4AEF235B00101C191C01F05AFF20
:10084400BB1C1B88002B42D0BB1C1B88012B3ED039
:10085400BB1C1B88022B3AD0BB1C1B88032B36D035
:10086400BB1C1B88042B32D0BB1C1B88052B2ED031
:10087400BB1C1B88062B2AD0BB1C1B88072B26D02D
:10088400BB1C1B88082B22D0BB1C1B88092B1ED029
:10089400BB1C1B880A2B1AD0BB1C1B880B2B16D025
:1008A400BB1C1B880C2B12D0BB1C1B880D2B0ED021
:1008B400BB1C1B880E2B0AD0BB1C1B880F2B06D01D
:1008C400384AE023FF33101C191C01F013FF7B1C72
:1008D4001B78002B22D07B1C1B78012B1ED07B1C89
:1008E4001B78022B1AD07B1C1B78032B16D07B1C85
:1008F4001B78042B12D07B1C1B78052B0ED07B1C81
:100904001B78062B0AD07B1C1B78072B06D0254AA4
:10091400F0235B00101C191C01F0ECFE7B1C1A7800
:10092400BB1C198807230B409B00111C99400B1C0E
:10093400FB60BB1C1B88DB089BB21A1CBB1C1B88FE
:10094400DB089BB2191C7B6808318900CB58B91CA1
:1009540008880721014089000F20041C8C40211CB9
:10096400C94319407B6808329200D150BB1C1B88D4
:10097400DB089BB21A1C7B6808329200D258FB68D1
:100984001343BB60BB1C1B88DB089BB21A1C7B682F
:1009940008329200B968D150BD4605B090BDC0463A
:1009A400000400485C39000880B584B000AF78606A
:1009B4000023FB607B689B78002B08D07B689B78C6
:1009C400012B04D02D4B181C542101F093FE7B689D
:1009D4005B78032B04D9294B181C552101F08AFE9E
:1009E4007B689B78002B3CD0254B7A681278920860
:1009F400D2B2C0329200D358FB607B681B781A1CB9
:100A040003231340DB00FF22101C9840031CDA432D
:100A1400FB681340FB607B685B789A01FF231A40F4
:100A24007B681B78191C03230B40DB00111C9940C5
:100A34000B1CFA681343FB60114B7A681278920816
:100A4400D2B2C0329200F968D1500D4B7A68127854
:100A5400111C1F220A400121081C9040021C1A602C
:100A640009E0074A7B681B78191C1F230B400121EE
:100A740099408023D150BD4604B080BD9C39000804
:100A840000E100E080B500AF064B1A6980231340F3
:100A940005D0044B044A5A60024B044A5A60BD46CE
:100AA40080BDC0460020024023016745AB89EFCDDD
:100AB40090B585B000AF78603B1C0F3304221A70E8
:100AC4007A68204B9A4203D97A681F4B9A4206D916
:100AD4001E4A87235B00101C191C01F00BFE3C1CF2
:100AE4000F34B0231B03181C00F0CEF8031C237032
:100AF4003B1C0F331B78042B1DD1154B144A126970
:100B040002210A431A61124B7A685A61104B104A47
:100B1400126940210A431A613C1C0F34B0231B03A1
:100B2400181C00F0B1F8031C2370094B084A126921
:100B340002218A431A613B1C0F331B78181CBD46E3
:100B440005B090BDFFFFFF07FFFF0008DC39000878
:100B54000020024090B585B000AF786039603B1C3E
:100B64000F3304221A700023BB607A682C4B9A421C
:100B740003D97A682B4B9A4206D92B4AAC235B00E3
:100B8400101C191C01F0B6FD3C1C0F34B0231B03D0
:100B9400181C00F079F8031C23703B1C0F331B78DE
:100BA400042B35D1214B214A126901210A431A61D0
:100BB4007B683A6892B21A803C1C0F34B0231B0342
:100BC400181C00F061F8031C23703B1C0F331B78C6
:100BD400042B17D17B680233BB60BB683A68120CE4
:100BE40092B21A803C1C0F34B0231B03181C00F073
:100BF4004BF8031C23700D4B0C4A126901218A43E4
:100C04001A6105E0094B094A126901218A431A61F4
:100C14003B1C0F331B78181CBD4605B090BDC04665
:100C2400FFFFFF07FFFF0008DC3900080020024037
:100C340080B582B000AFFB1D04221A70114BDA6834
:100C44000123134003D0FB1D01221A7014E00D4B45
:100C5400DA681023134003D0FB1D02221A700BE044
:100C6400084BDA680423134003D0FB1D03221A70D7
:100C740002E0FB1D04221A70FB1D1B78181CBD46E4
:100C840002B080BD0020024090B585B000AF78600E
:100C94003B1C0F3304221A703C1C0F34FFF7C8FFAF
:100CA400031C237008E03C1C0F34FFF7C1FF031C36
:100CB40023707B68013B7B603B1C0F331B78012B4B
:100CC40002D17B68002BEED17B68002B03D13B1C47
:100CD4000F3305221A703B1C0F331B78181CBD46BA
:100CE40005B090BD80B584B000AF786039603B1C1E
:100CF4000E3300221A807A685C4B9A4223D07A68B9
:100D04008023DB059A421ED07A68594B9A421AD046
:100D14007A68584B9A4216D07A68574B9A4212D046
:100D24007A68564B9A420ED07A68554B9A420AD04A
:100D34007A68544B9A4206D0534A0223FF33101C5C
:100D4400191C01F0D7FC3B685B88002B16D03B686C
:100D54005B88102B12D03B685B88202B0ED03B683D
:100D64005B88402B0AD03B685B88602B06D0464AE0
:100D740081235B00101C191C01F0BCFC3B681B891F
:100D8400002B12D03B681A8980235B009A420CD056
:100D94003B681A8980239B009A4206D03A4A04236E
:100DA400FF33101C191C01F0A5FC3B1C0E337A68A0
:100DB40012881A807A682D4B9A4208D07A68802368
:100DC400DB059A4203D07A68294B9A4210D13B1C26
:100DD4000E333A1C0E32128870218A431A803B6803
:100DE40059883B1C0E333A1C0E3212880A431A806F
:100DF4007A68204B9A4210D03B1C0E333A1C0E32B8
:100E04001188224A0A401A803B6819893B1C0E3318
:100E14003A1C0E3212880A431A807B683A1C0E323E
:100E240012881A803B685A687B68DA623B681A88C1
:100E34007B681A857A680D4B9A420BD07A680F4BFF
:100E44009A4207D07A680E4B9A4203D07A680D4BC7
:100E54009A4204D13B689B7A1A1C7B681A867B6889
:100E640001229A82BD4604B080BDC046002C0140D8
:100E740000040040001000400020004000400140F9
:100E840000440140004801401C3A0008FFFCFFFFF9
:100E940080B582B000AF78600A1CFB1C1A707A68B7
:100EA400264B9A4223D07A688023DB059A421ED0CF
:100EB4007A68234B9A421AD07A68224B9A4216D007
:100EC4007A68214B9A4212D07A68204B9A420ED00B
:100ED4007A681F4B9A420AD07A681E4B9A4206D00F
:100EE4001D4AEC23FF33101C191C01F003FCFB1CEE
:100EF4001B78002B0AD0FB1C1B78012B06D0164A4A
:100F0400F6235B00101C191C01F0F4FBFB1C1B787E
:100F1400002B08D07B681B889BB2802213439AB2B3
:100F24007B681A8007E07B681B889BB2802293430E
:100F34009AB27B681A80BD4602B080BD002C014085
:100F44000004004000100040002000400040014028
:100F540000440140004801401C3A000880B582B0BA
:100F640000AF78600A1CFB1C1A707A68254B9A4201
:100F740022D07A688023DB059A421DD07A68224BFE
:100F84009A4219D07A68214B9A4215D07A68204B3C
:100F94009A4211D07A681F4B9A420DD07A681E4B40
:100FA4009A4209D07A681D4B9A4205D01C4A1D4BBF
:100FB400101C191C01F09EFBFB1C1B78002B09D094
:100FC400FB1C1B78012B05D0154A174B101C191C50
:100FD40001F090FBFB1C1B78002B08D07B681B885E
:100FE4009BB2012213439AB27B681A8007E07B68A4
:100FF4001B889BB2012293439AB27B681A80BD4638
:1010040002B080BD002C01400004004000100040EC
:1010140000200040004001400044014000480140DD
:101024001C3A0008310200003202000080B582B090
:1010340000AF78600A1CFB1C1A707A681F4B9A4236
:1010440011D07A681E4B9A420DD07A681D4B9A4291
:1010540009D07A681C4B9A4205D01C4A1C4B101CC0
:10106400191C01F047FBFB1C1B78002B09D0FB1C4F
:101074001B78012B05D0154A164B101C191C01F0C6
:1010840039FBFB1C1B78002B0AD07A684423D35A03
:101094009BB2114A134399B27A684423D15209E0AE
:1010A4007A684423D35A9BB25B045B0C99B27A6886
:1010B4004423D152BD4602B080BDC046002C01403D
:1010C4000040014000440140004801401C3A00082F
:1010D40096020000970200000080FFFF80B584B0F4
:1010E40000AF786039603B1C0A3300221A803B1C35
:1010F4000E3300221A803B1C0C3300221A807A68BB
:10110400A74B9A421FD07A688023DB059A421AD0F3
:101114007A68A44B9A4216D07A68A34B9A4212D0AA
:101124007A68A24B9A420ED07A68A14B9A420AD0AE
:101134007A68A04B9A4206D09F4AB8239B00101CA1
:10114400191C01F0D7FA3B681B88002B19D03B68A7
:101154001B88102B15D03B681B88202B11D03B68B3
:101164001B88302B0DD03B681B88602B09D03B6853
:101174001B88702B05D0904A904B101C191C01F051
:10118400B9FA3B685B88002B09D03B685B88012B6C
:1011940005D0894A8A4B101C191C01F0ABFA3B6834
:1011A4009B89002B09D03B689B89022B05D0824A7E
:1011B400844B101C191C01F09DFA7B681B8C9BB29C
:1011C400012293439AB27B681A843B1C0E337A68DB
:1011D400128C1A803B1C0C337A6892881A803B1C50
:1011E4000A337A68128B1A803B1C0A333A1C0A327F
:1011F400128870218A431A803B1C0A333A1C0A3233
:10120400128803218A431A803B6819883B1C0A33DD
:101214003A1C0A3212880A431A803B1C0E333A1CC9
:101224000E32128802218A431A803B6899893B1C3A
:101234000E333A1C0E3212880A431A803B685988CE
:101244003B1C0E333A1C0E3212880A431A807A6809
:10125400534B9A420CD07A68544B9A4208D07A681D
:10126400534B9A4204D07A68524B9A4200D080E0A1
:101274003B689B88002B09D03B689B88042B05D0D6
:101284004D4A514B101C191C01F034FA3B68DB89A0
:10129400002B0AD03B68DB89082B06D0464AC023C2
:1012A4009B00101C191C01F025FA3B685A8A802304
:1012B4009B009A4209D03B685B8A002B05D03E4ACA
:1012C400424B101C191C01F015FA3B681A8A802342
:1012D4005B009A4209D03B681B8A002B05D0364A32
:1012E4003B4B101C191C01F005FA3B1C0E333A1C35
:1012F4000E32128808218A431A803B68D9893B1C24
:101304000E333A1C0E3212880A431A803B1C0E33E9
:101314003A1C0E32128804218A431A803B68998849
:101324003B1C0E333A1C0E3212880A431A803B1CB3
:101334000C333A1C0C321188264A0A401A803B1C92
:101344000C333A1C0C321188234A0A401A803B6839
:10135400198A3B1C0C333A1C0C3212880A431A803B
:101364003B68598A3B1C0C333A1C0C3212880A43E2
:101374001A807B683A1C0C3212889A807B683A1C6B
:101384000A3212881A833B689A687B685A637B68BE
:101394003A1C0E3212881A84BD4604B080BDC04681
:1013A400002C0140000400400020004000400140A7
:1013B40000440140004801401C3A0008E1020000DA
:1013C400E2020000E3020000FF020000010300004B
:1013D40002030000FFFEFFFFFFFDFFFF80B584B0A6
:1013E40000AF786039603B1C0A3300221A803B1C32
:1013F4000E3300221A803B1C0C3300221A807A68B8
:10140400A24B9A4212D07A688023DB059A420DD00F
:101414007A689F4B9A4209D07A689E4B9A4205D0CB
:101424009D4A9E4B101C191C01F064F93B681B88F3
:10143400002B19D03B681B88102B15D03B681B88E8
:10144400202B11D03B681B88302B0DD03B681B88A8
:10145400602B09D03B681B88702B05D08E4A904BBB
:10146400101C191C01F046F93B685B88002B0AD05C
:101474003B685B88012B06D0874ACD239B00101C58
:10148400191C01F037F93B689B89002B09D03B6894
:101494009B89022B05D0804A824B101C191C01F039
:1014A40029F97B681B8C9BB2102293439AB27B6808
:1014B4001A843B1C0E337A68128C1A803B1C0C3342
:1014C4007A6892881A803B1C0A337A68128B1A80D5
:1014D4003B1C0A333A1C0A321188734A0A401A80A8
:1014E4003B1C0A333A1C0A321188704A0A401A809B
:1014F4003B681B881B0299B23B1C0A333A1C0A3214
:1015040012880A431A803B1C0E333A1C0E3212888E
:1015140020218A431A803B689B891B0199B23B1C9A
:101524000E333A1C0E3212880A431A803B685B88D9
:101534001B0199B23B1C0E333A1C0E3212880A432B
:101544001A807A68514B9A4200D088E03B689B88A5
:10155400002B09D03B689B88042B05D04E4A544B82
:10156400101C191C01F0C6F83B68DB89002B09D05C
:101574003B68DB89082B05D0474A4E4B101C191CCD
:1015840001F0B8F83B685A8A80239B009A420AD03B
:101594003B685B8A002B06D03F4AD5239B00101C76
:1015A400191C01F0A7F83B681A8A80235B009A4251
:1015B40009D03B681B8A002B05D0374A3E4B101CD0
:1015C400191C01F097F83B1C0E333A1C0E3212889A
:1015D40080218A431A803B68DB891B0199B23B1C3A
:1015E4000E333A1C0E3212880A431A803B1C0E3307
:1015F4003A1C0E32128840218A431A803B689B8829
:101604001B0199B23B1C0E333A1C0E3212880A435A
:101614001A803B1C0C333A1C0C321188274A0A40AE
:101624001A803B1C0C333A1C0C321188244A0A40A1
:101634001A803B681B8A9B0099B23B1C0C333A1CF2
:101644000C3212880A431A803B685B8A9B0099B269
:101654003B1C0C333A1C0C3212880A431A807B68F8
:101664003A1C0C3212889A807B683A1C0A3212881F
:101674001A833B689A687B689A637B683A1C0E32CB
:1016840012881A84BD4604B080BDC046002C0140B7
:1016940000040040004001401C3A000832030000EE
:1016A4003303000035030000FF8FFFFFFFFCFFFF43
:1016B400520300005303000055030000FFFBFFFF2B
:1016C400FFF7FFFF80B584B000AF786039603B1C42
:1016D4000A3300221A803B1C0E3300221A803B1C62
:1016E4000C3300221A807A689F4B9A420ED07A6893
:1016F4008023DB059A4209D07A689C4B9A4205D034
:101704009B4A9C4B101C191C00F0F4FF3B681B887F
:10171400002B19D03B681B88102B15D03B681B8805
:10172400202B11D03B681B88302B0DD03B681B88C5
:10173400602B09D03B681B88702B05D08C4A8E4BDC
:10174400101C191C00F0D6FF3B685B88002B09D0E5
:101754003B685B88012B05D0854A884B101C191CFB
:1017640000F0C8FF3B689B89002B0AD03B689B892B
:10177400022B06D07E4AE2239B00101C191C00F0A9
:10178400B9FF7B681B8C9AB27D4B13409AB27B687D
:101794001A843B1C0E337A68128C1A803B1C0C335F
:1017A4007A6892881A803B1C0A337A68928B1A8072
:1017B4003B1C0A333A1C0A32128870218A431A806D
:1017C4003B1C0A333A1C0A32128803218A431A80CA
:1017D4003B6819883B1C0A333A1C0A3212880A43B4
:1017E4001A803B1C0E333A1C0E321188654A0A409B
:1017F4001A803B689B891B0299B23B1C0E333A1C2E
:101804000E3212880A431A803B685B881B0299B225
:101814003B1C0E333A1C0E3212880A431A807A6833
:10182400514B9A4200D088E03B689B88002B0AD039
:101834003B689B88042B06D04D4AE9239B00101C6F
:10184400191C00F057FF3B68DB89002B09D03B686B
:10185400DB89082B05D0464A4B4B101C191C00F0A1
:1018640049FF3B685A8A80239B009A4209D03B680F
:101874005B8A002B05D03E4A444B101C191C00F017
:1018840039FF3B681A8A80235B009A4209D03B687F
:101894001B8A002B05D0364A3D4B101C191C00F046
:1018A40029FF3B1C0E333A1C0E321188394A0A4078
:1018B4001A803B68DB891B0299B23B1C0E333A1C2D
:1018C4000E3212880A431A803B1C0E333A1C0E3225
:1018D4001188314A0A401A803B689B881B0299B2DE
:1018E4003B1C0E333A1C0E3212880A431A803B1CEE
:1018F4000C333A1C0C321188284A0A401A803B1CCB
:101904000C333A1C0C321188254A0A401A803B6871
:101914001B8A1B0199B23B1C0C333A1C0C321288F3
:101924000A431A803B685B8A1B0199B23B1C0C3347
:101934003A1C0C3212880A431A807B683A1C0C3217
:1019440012889A807B683A1C0A3212889A833B6810
:101954009A687B68DA637B683A1C0E3212881A84B0
:10196400BD4604B080BDC046002C014000040040C8
:101974001C3A00088503000086030000870300006A
:10198400FFFEFFFFFFFDFFFFA5030000A60300000D
:10199400A7030000FFF7FFFFFFFBFFFFFFEFFFFFC1
:1019A400FFDFFFFF80B584B000AF786039603B1C77
:1019B4000C3300221A803B1C0A3300221A803B1C81
:1019C4000E3300221A807A686C4B9A420ED07A68E1
:1019D4008023DB059A4209D07A68694B9A4205D084
:1019E400684A694B101C191C00F084FE3B681B8874
:1019F400002B19D03B681B88102B15D03B681B8823
:101A0400202B11D03B681B88302B0DD03B681B88E2
:101A1400602B09D03B681B88702B05D0594A5B4B5F
:101A2400101C191C00F066FE3B685B88002B09D073
:101A34003B685B88012B05D0524A554B101C191C7E
:101A440000F058FE3B689B89002B0AD03B689B89B9
:101A5400022B06D04B4AF6239B00101C191C00F0E5
:101A640049FE7B681B8C9AB24A4B13409AB27B683E
:101A74001A843B1C0A337A68128C1A803B1C0E337E
:101A84007A6892881A803B1C0C337A68928B1A808D
:101A94003B1C0C333A1C0C3211883F4A0A401A8012
:101AA4003B1C0C333A1C0C3211883C4A0A401A8005
:101AB4003B681B881B0299B23B1C0C333A1C0C324A
:101AC40012880A431A803B1C0A333A1C0A321188D2
:101AD400334A0A401A803B689B891B0399B23B1C1A
:101AE4000A333A1C0A3212880A431A803B685B881C
:101AF4001B0399B23B1C0A333A1C0A3212880A436C
:101B04001A807A681D4B9A4222D13B681A8A802334
:101B14005B009A4209D03B681B8A002B05D0194A06
:101B2400204B101C191C00F0E5FD3B1C0E333A1C25
:101B34000E3211881C4A0A401A803B681B8A9B019A
:101B440099B23B1C0E333A1C0E3212880A431A8097
:101B54007B683A1C0E3212889A807B683A1C0C32DD
:101B640012889A833B689A687B681A647B683A1C7B
:101B74000A3212881A84BD4604B080BD002C01408C
:101B8400000400401C3A0008D5030000D6030000FE
:101B9400D7030000FFEFFFFFFF8FFFFFFFFCFFFFF6
:101BA400FFDFFFFFF5030000FFBFFFFF80B582B03A
:101BB40000AF786039607A68134B9A421ED07A6815
:101BC4008023DB059A4219D07A68104B9A4215D0CB
:101BD4007A680F4B9A4211D07A680E4B9A420DD014
:101BE4007A680D4B9A4209D07A680C4B9A4205D018
:101BF4000B4A0C4B101C191C00F07CFD7B683A68E6
:101C04005A63BD4602B080BD002C01400004004070
:101C140000200040004001400044014000480140D1
:101C24001C3A00086204000080B582B000AF7860FE
:101C340039607A680D4B9A4212D07A688023DB05AA
:101C44009A420DD07A680A4B9A4209D07A68094BB5
:101C54009A4205D0084A094B101C191C00F04AFD91
:101C64007B683A689A63BD4602B080BD002C01408F
:101C740000040040004001401C3A000871040000C8
:101C840080B582B000AF786039607A680C4B9A42B4
:101C94000FD07A688023DB059A420AD07A68094B10
:101CA4009A4206D0084A9023DB00101C191C00F04D
:101CB40021FD7B683A68DA63BD4602B080BDC04648
:101CC400002C0140000400401C3A000880B584B098
:101CD40000AF78600A1CBB1C1A803B1C0E33002228
:101CE4001A807A68264B9A421ED07A688023DB05D4
:101CF4009A4219D07A68234B9A4215D07A68224BBB
:101D04009A4211D07A68214B9A420DD07A68204BBE
:101D14009A4209D07A681F4B9A4205D01E4A1F4B3B
:101D2400101C191C00F0E6FCBB1C1B88082B09D0F6
:101D3400BB1C1B88002B05D0174A194B101C191CFF
:101D440000F0D8FC3B1C0E337A68128B1A803B1CC3
:101D54000E333A1C0E32128808218A431A803B1C27
:101D64000E33391C0E31BA1C098812880A431A80B2
:101D74007B683A1C0E3212881A83BD4604B080BDBB
:101D8400002C0140000400400020004000400140BD
:101D940000440140004801401C3A000822050000AC
:101DA4002305000080B584B000AF78603B1C0F337E
:101DB40000221A707B68012B56D07B68022B53D00B
:101DC4007B68042B50D07B68082B4DD07B68102B8C
:101DD4004AD07B68202B47D07B68402B44D07B685B
:101DE400802B41D07A6880235B009A423CD07A6889
:101DF40080239B009A4237D07A688023DB009A4282
:101E040032D07A6880231B019A422DD07A688023CD
:101E14005B019A4228D07A6880239B019A4223D09E
:101E24007A688023DB019A421ED07A6880231B02E1
:101E34009A4219D07A6880235B029A4214D07A6855
:101E440080239B029A420FD07A688023DB029A4255
:101E54000AD07A6880231B039A4205D00D4A0E4BA0
:101E6400101C191C00F046FC0C4B1B687A681340CC
:101E740004D03B1C0F3301221A7003E03B1C0F33C8
:101E840000221A703B1C0F331B78181CBD4604B08B
:101E940080BDC0465C3A00084902000000000240D0
:101EA40080B582B000AF78607B681B0D1B0502D142
:101EB4007B68002B05D1064A064B101C191C00F048
:101EC40019FC054B7A685A60BD4602B080BDC04615
:101ED4005C3A00087E0200000000024080B58EB02B
:101EE40000AF7860396000237B6300233B630023E9
:101EF400FB620023BB627A68934B9A4208D07A68EB
:101F0400924B9A4204D0924B181CD02100F0F2FB61
:101F14003B681B68002B04D03B681A688D4B9A42BF
:101F240004D98B4B181CD12100F0E4FB3B685B689F
:101F3400002B0AD03B685A6880235B019A4204D084
:101F4400834B181CD22100F0D5FB3B689B68002B07
:101F540010D03B689A6880239B019A420AD03B6860
:101F64009A68C0239B019A4204D0794B181CD32150
:101F740000F0C0FB3B68DB68002B10D03B68DA68DC
:101F84008023DB009A420AD03B68DA68C023DB0076
:101F94009A4204D06E4B181CD42100F0ABFB3B6872
:101FA4001B690C22934303D13B681B69002B04D1AA
:101FB400674B181CD52100F09DFB3B685B69002B27
:101FC40016D03B685A6980235B009A4210D03B6864
:101FD4005A6980239B009A420AD03B685A69C023FD
:101FE4009B009A4204D05A4B181CD62100F082FB65
:101FF4007B681B680122191C91430A1C7B681A60C8
:102004007B685B687B637A6B534B13407B633B68F1
:102014009B687A6B13437B637B687A6B5A607B683B
:102024001B687B637A6B4D4B13407B633B685A6838
:102034003B68DB681A433B681B6913437A6B1343A1
:102044007B637B687A6B1A607B689B687B637A6BC3
:10205400434B13407B633B685B697A6B13437B633D
:102064007B687A6B9A603B1C0C33181CFEF754F99E
:102074007A68354B9A4204D13B1C0C339B693B6311
:1020840003E03B1C0C339B683B637B681A6880232A
:102094001B0213400FD03A6B131C9B009B189A0031
:1020A4009A183B681B685B00101C191CFEF708F8A3
:1020B400031CFB620EE03A6B131C9B009B189A00F6
:1020C4009A183B681B689B00101C191CFDF7F8FF4D
:1020D400031CFB62FB6A181C6421FDF7F1FF031C5F
:1020E4001B017B637B6B1B0964225343FA6AD31A7B
:1020F400BB627B681A6880231B0213400ED0BB6A44
:10210400DB003233181C6421FDF7DAFF031C1A1CB0
:10211400072313407A6B13437B630DE0BB6A1B01F7
:102124003233181C6421FDF7CBFF031C1A1C0F2348
:1021340013407A6B13437B637B6B9AB27B689A81FF
:10214400BD460EB080BDC04600380140004400408A
:102154009C3A0008808D5B00FFCFFFFFF3E9FFFF8F
:10216400FFFCFFFF80B582B000AF78600A1CFB1C47
:102174001A707A68194B9A420AD07A68184B9A42B4
:1021840006D0184A7823FF33101C191C00F0B2FA49
:10219400FB1C1B78002B0AD0FB1C1B78012B06D0E0
:1021A400104ABC235B00101C191C00F0A3FAFB1C92
:1021B4001B78002B06D07B681B6801221A437B68BE
:1021C4001A6007E07B681B680122191C91430A1CF2
:1021D4007B681A60BD4602B080BDC046003801402D
:1021E400004400409C3A000880B582B000AF78609B
:1021F4000A1CBB1C1A807A68114B9A420AD07A686E
:10220400104B9A4206D0104ADC239B00101C191C68
:1022140000F070FABB1C1A880C4B9A4205D90A4A82
:102224000B4B101C191C00F065FABB1C1B88DB054A
:10223400DB0D9AB27B681A85BD4602B080BDC046EC
:1022440000380140004400409C3A0008FF010000AF
:102254007103000080B588B000AFF860B960FB1D61
:102264001A700023BB6100237B6100233B610023C0
:10227400FB61FA68424B9A4209D0FA68414B9A4290
:1022840005D0414A414B101C191C00F033FABA68BE
:1022940084235B009A4232D0BA683D4B9A422ED0D6
:1022A400BA683C4B9A422AD0BA683B4B9A4226D031
:1022B400BA683A4B9A4222D0BA68394B9A421ED035
:1022C400BA68384B9A421AD0BA68C0239B009A4223
:1022D40015D0BA68344B9A4211D0BA68334B9A423B
:1022E4000DD0BA68324B9A4209D0BA68314B9A423F
:1022F40005D0254A304B101C191C00F0FBF9FB1DBE
:102304001B78002B09D0FB1D1B78012B05D01E4A1E
:102314002A4B101C191C00F0EDF9FB68FB61BB682B
:102324009BB21B0A9BB2BB61BA68FF2313407B615B
:102334007B690122111C99400B1C3B61BB69022B78
:1023440003D1FB690433FB6105E0BB69032B02D1B4
:10235400FB690833FB61FB1D1B78002B06D0FB696E
:10236400FA6911683A690A431A6006E0FB69FA6976
:1023740012683969C9430A401A60BD4608B080BD75
:1023840000380140004400409C3A0008B4060000B4
:102394000701070006010600050105000401040009
:1023A400060208000A0309001A010B001B010C00B5
:1023B4000E01110016031400B5060000B606000055
:1023C40080B584B000AF786039603B1C0F330022C5
:1023D4001A707A68444B9A4209D07A68434B9A42FD
:1023E40005D0434A434B101C191C00F083F93B6889
:1023F400012B00D162E03B68802B00D15EE03B689A
:10240400402B00D15AE03B68202B57D03B68102B5F
:1024140054D03A6880235B009A424FD03A688023B4
:102424009B009A424AD03B68082B47D03B68042B58
:1024340044D03B68022B41D03A688023DB009A42A7
:102444003CD03A6880231B019A4237D03A688023F3
:102454005B019A4232D03A688023DB019A422DD044
:102464003A6880231B029A4228D03A6880235B0290
:102474009A4223D03A6880239B029A421ED03A683B
:102484008023DB029A4219D03A6880231B039A42C4
:1024940014D03A6880235B039A420FD03A688023B1
:1024A4009B039A420AD03A688023DB039A4205D000
:1024B4000F4A114B101C191C00F01CF97B68DB69D6
:1024C4003A68134004D03B1C0F3301221A7003E016
:1024D4003B1C0F3300221A703B1C0F331B78181C53
:1024E400BD4604B080BDC0460038014000440040F1
:1024F4009C3A0008310700003207000080B582B022
:1025040000AF786039607A68094B9A420AD07A68D9
:10251400084B9A4206D0084AEC23DB00101C191C15
:1025240000F0E8F87B683A681A62BD4602B080BDE4
:1025340000380140004400409C3A000880B586B051
:1025440000AF786039600023FB6000237B610023C7
:10255400BB603B1C133300221A707A684B4B9A42BF
:102564000AD07A684A4B9A4206D04A4AF023DB00E2
:10257400101C191C00F0BEF83A6884235B009A42D0
:1025840039D03A68444B9A4235D03A68434B9A4220
:1025940031D03A68424B9A422DD03A68414B9A4224
:1025A40029D03A68404B9A4225D03A683F4B9A4228
:1025B40021D03A683E4B9A421DD03A683D4B9A422C
:1025C40019D03A683C4B9A4215D03A683B4B9A4230
:1025D40011D03A683A4B9A420DD03A68394B9A4234
:1025E40009D03A68384B9A4205D02A4A374B101C16
:1025F400191C00F07FF83B689BB21B0A9BB2BB60BE
:102604003A68FF2313407B617B690122111C9940C6
:102614000B1C7B61BB68012B05D17B681A687B6945
:1026240013407B610DE0BB68022B05D17B685A68BF
:102634007B6913407B6104E07B689A687B69134083
:102644007B613B681B0CFB60FB680122111C9940F9
:102654000B1CFB607B68DA69FB681340FB607B69D9
:10266400002B07D0FB68002B04D03B1C1333012242
:102674001A7003E03B1C133300221A703B1C133303
:102684001B78181CBD4606B080BDC046003801400A
:10269400004400409C3A00080701070006010600B8
:1026A4000501050004010400060208000A030900EC
:1026B4000003030000030200000301001A010B00E1
:1026C4001B010C000E011100160314008107000009
:1026D40080B500AF00F0BAF8012000F0BBF800F0BC
:1026E4006FFD034B181C00F0D5F800F0DFF8FEE78F
:1026F400F131000880B582B000AF78603960FEE740
:1027040080B500AFBD4680BD80B500AFFEE7C046D2
:1027140080B500AFBD4680BD80B500AFBD4680BD6D
:10272400B0B582B000AF021C3960FB1D1A70FB1DEE
:102734001B787F2B32D93049FB1D1B781A1C0F23C1
:102744001340083B98082C4AFB1D1B781C1C0F23C4
:102754002340083B9B0806339B00D3185B68FA1D93
:102764001278141C03222240D200FF24251C954019
:102774002A1CD2431A403B689C01FF231C40FB1DCA
:102784001B781D1C03232B40DB00251C9D402B1CA8
:102794001A43831D9B00CB185A6029E0174BFA1D7E
:1027A400127852B292081549F81D007840B2800898
:1027B400C03080004158F81D0078041C03202040DC
:1027C400C000FF24251C8540281CC04308403968EC
:1027D4008C01FF210C40F91D09780D1C03212940AF
:1027E400C900251C8D40291C0143C0329200D150E0
:1027F400BD4602B0B0BDC04600ED00E000E100E01F
:1028040080B582B000AF78607A680E4B9A4201D9E5
:10281400012312E00C4B7A681202120A013A5A6040
:1028240001235B42181C0321FFF77AFF064B0022A9
:102834009A60054B07221A600023181CBD4602B09B
:1028440080BDC046FFFFFF0010E000E080B500AF90
:10285400BD4680BD80B58AB000AF78600C4B7A6805
:102864001A603B1C0C33181CFDF756FD3B1C0C3343
:102874005B68181CFA239900FDF722FC031C7A6894
:102884005343181CFFF7BCFFBD460AB080BDC046C9
:102894002000002080B582B000AF7860024B7A68D7
:1028A4001A60BD4602B080BD1400002080B500AFA0
:1028B4000B4B00221A700B4B1B68002B05D0094BE5
:1028C4001A68094B1B68181C9047074B1A68074B7A
:1028D4001B68D218044B1A6000F00AF8E8E7C046F7
:1028E4001C00002014000020100000202000002004
:1028F40080B500AF09E00A4B1B68002B05D0084BDC
:102904001A68084B1B68181C9047074B1B78DBB2EE
:1029140001225340DBB2002BEDD1BD4680BDC04641
:1029240018000020100000201C00002080B500AF1B
:10293400024B01221A70BD4680BDC0461C00002017
:1029440080B500AFFEF79EF8BD4680BD80B584B06B
:1029540000AF786039600023BB603B68D9B23B1C90
:102964000D3303220A401A703B689B083B602E4BD0
:10297400181CFEF79DF83B1C0E3300221A8017E04A
:102984003B1C0E331B889B0027495A183B1C0E33F3
:102994001B881B017968CB181B68101C191CFEF7D7
:1029A400D9F83B1C0E331A883B1C0E3301321A80B3
:1029B4003B1C0E331A883B689A42E1D33B1C0D330F
:1029C4001B78002B2DD03B1C0E3300221A8016E0FE
:1029D4003B1C0E331B883A1C0832D3183A6891000A
:1029E4003A1C0E3212888A1879688A1812781A707A
:1029F4003B1C0E331A883B1C0E3301321A803B1CDD
:102A04000D331B789BB23A1C0E3212889A42DFD3E4
:102A14003B68064A9B189A00BB68101C191CFEF7F9
:102A240099F8BD4604B080BD00FC0008003F0002D8
:102A340080B582B000AF786039607968044A3B6839
:102A4400081C111C1A1C00F025FFBD4602B080BDF5
:102A540000FC000880B500AF0220FFF7A3F9031CB7
:102A6400002B09D0174B1B68002B05D0154B1A6897
:102A7400154B1B68181C90470420FFF793F9031C9F
:102A8400002B09D0114B1B68002B05D00F4B1A6883
:102A94000D4B1B68181C90470820FFF783F9031C93
:102AA400002B09D00A4B1B68002B05D0084B1A6871
:102AB400054B1B68181C90470120FFF7F1F9BD4630
:102AC40080BDC04638000020600000204C0000207B
:102AD4002400002080B500AF2020FFF763F9031C19
:102AE400002B09D0344B5B68002B05D0324B5A685D
:102AF400324B5B68181C90474020FFF753F9031CC6
:102B0400002B09D02E4B5B68002B05D02C4B5A6848
:102B14002A4B5B68181C90478020FFF743F9031C7D
:102B2400002B09D0274B5B68002B05D0254B5A6836
:102B3400224B5B68181C90471020FFF7B1F98023E3
:102B44009B00181CFFF72EF9031C002B09D01A4B0D
:102B54009B68002B05D0184B9A68184B9B68181C6F
:102B640090478023DB00181CFFF71CF9031C002B83
:102B740009D0134B9B68002B05D0114B9A680F4B5F
:102B84009B68181C904780231B01181CFFF70AF947
:102B9400031C002B09D00B4B9B68002B05D0094B61
:102BA4009A68064B9B68181C904780235B00181C8E
:102BB400FFF776F9BD4680BD380000206000002094
:102BC4004C0000202400002080B500AF80239B012E
:102BD400181CFFF7E7F8031C002B09D0374BDB6800
:102BE400002B05D0354BDA68354BDB68181C904751
:102BF4008023DB01181CFFF7D5F8031C002B09D038
:102C0400304BDB68002B05D02E4BDA682C4BDB688D
:102C1400181C904780231B02181CFFF7C3F8031CE1
:102C2400002B09D0284BDB68002B05D0264BDA6833
:102C3400234BDB68181C904780235B01181CFFF7AB
:102C44002FF980239B02181CFFF7ACF8031C002B00
:102C540009D01A4B1B69002B05D0184B1A69184B65
:102C64001B69181C90478023DB02181CFFF79AF895
:102C7400031C002B09D0134B1B69002B05D0114BEF
:102C84001A690F4B1B69181C904780231B03181CDF
:102C9400FFF788F8031C002B09D00B4B1B69002B92
:102CA40005D0094B1A69064B1B69181C90478023F1
:102CB4005B02181CFFF7F4F8BD4680BD3800002005
:102CC400600000204C0000202400002080B58AB061
:102CD40000AF8023DB01181C0121FDF745FC802394
:102CE4009B02181C0121FDF7FDFB9023DB05181C3A
:102CF40009210122FDF788FD9023DB05181C0A2118
:102D04000122FDF781FD3B1C203302221A713B1C7A
:102D1400203300229A713B1C2033C022D2001A6057
:102D24003B1C20330122DA713B1C203303225A71ED
:102D34009023DA053B1C2033101C191CFDF756FCAC
:102D44003B1C0833962212021A603B1C08330022F3
:102D54005A613B1C08330C221A613B1C08330022C5
:102D6400DA603B1C083300229A603B1C08330022C3
:102D74005A60114A3B1C0833101C191CFFF7AEF8AB
:102D84000D4A0E4B101C191C0122FFF763FA3B1D60
:102D94001B221A703B1D01225A703B1D01229A709E
:102DA4003B1D181CFDF700FE034B181C0121FFF707
:102DB400D9F9BD460AB080BD0038014005010500BF
:102DC40080B582B000AF7860024B7A681A60BD4665
:102DD40002B080BD7400002080B582B000AF021C38
:102DE400FB1D1A70C046094B181C8021FFF7E8FA36
:102DF400031C002BF7D0FB1D1B789BB2034A101C4D
:102E0400191CFFF7F1F9BD4602B080BD003801403E
:102E140080B582B000AF104A104B101C191CFFF78C
:102E24008DFB031C012B0ED10B4B9B8C9AB2FB1D0B
:102E34001A700B4B1B68002B05D0094B1B68FA1D3D
:102E44001278101C9847044A064B101C191CFFF7F3
:102E540055FBBD4602B080BD0038014005010500A8
:102E6400740000205F1B120080B58AB000AF80237D
:102E7400DB02181C0121FDF735FB80231B01181C04
:102E84000121FDF771FB3B1C203302221A713B1C0C
:102E9400203300229A713B1C2033E02212021A6074
:102EA4003B1C20330122DA713B1C203303225A716C
:102EB4003E4A3B1C2033101C191CFDF797FB3B4B6F
:102EC400181C0D210222FDF79FFC384B181C0E2103
:102ED4000222FDF799FC354B181C0F210222FDF745
:102EE40093FC3B1C143300221A803B1C1433002235
:102EF4005A803B1C1433802252005A603B1C14330A
:102F040000221A813B1C143300229A72284A3B1C6B
:102F14001433101C191CFDF7E5FE3B1C60221A80BB
:102F24003B1C01225A803B1C04229A803B1C002239
:102F34009A813B1C0822DA813B1C802252001A82AF
:102F44003B1C00225A823B1C00229A60184A3B1CFC
:102F5400101C191CFEF7C2F8154A3B1C101C191C46
:102F6400FEF73CFA124A3B1C101C191CFEF7AAFB84
:102F74000F4A3B1C101C191CFEF714FD0C4B181CAB
:102F84000021FEF7A3FE0A4B181C0121FDF780FF68
:102F9400074B181C0121FEF749F8054B181C0121A9
:102FA400FDF7DCFFBD460AB080BDC0460004004802
:102FB400002C014080B582B000AF021CFB1D1A70CA
:102FC400FB1D1B78034A101C191CFEF7EFFDBD46C0
:102FD40002B080BD002C014080B582B000AF021C5D
:102FE400FB1D1A70FB1D1B78034A101C191CFEF7ED
:102FF4001BFEBD4602B080BD002C014080B582B0EE
:1030040000AF021CFB1D1A70FB1D1B78034A101C29
:10301400191CFEF735FEBD4602B080BD002C0140F0
:1030240080B584B000AFF860B9607A603B60FB683B
:10303400DAB2BB691A70FB681B0AFB60FB68DAB280
:103044003B681A70FB681B0AFB60FB68DAB27B689A
:103054001A70FB681B0AFB60FB68DAB2BB681A7063
:10306400BD4604B080BDC04680B584B000AFF860F2
:10307400B960111C1A1CBB1D19803B1D1A80FB680A
:10308400BA681A60FB68BA1D12889A80FB68BA682D
:103094009A60FB68BA68DA60FB683A1D1288DA80C5
:1030A400FB6800221A823A1DBB1D12881B88101C63
:1030B400191CFDF705F8031C9AB2FB685A82BD4639
:1030C40004B080BD80B582B000AF786039607B68A1
:1030D4001B8A9AB27B685B8A9BB29A421DD27B6838
:1030E400D9687B689B889BB23A68081C111C1A1C1F
:1030F40000F0D0FB7B68DB687A68101C191C00F0B8
:103104003FF8021C7B68DA607B681B8A9BB2013340
:103114009AB27B681A82012300E00023181CBD4682
:1031240002B080BD80B582B000AF786039607B6842
:103134001B8A9BB2002B1DD07B689A687B689B8896
:103144009BB23968081C111C1A1C00F0A3FB7B6895
:103154009B687A68101C191C00F012F8021C7B682A
:103164009A607B681B8A9BB2013B9AB27B681A8285
:10317400012300E00023181CBD4602B080BDC046F8
:1031840080B582B000AF786039607B681A687B686C
:103194005B8A9BB2013B7968898889B24B43D21818
:1031A4003B689A4205D37B689B889BB23A68D318E4
:1031B40001E07B681B68181CBD4602B080BDC04698
:1031C40080B500AFFFF750FE00F07AFA054B181CEB
:1031D40000F004FA044B00221A7000F01DF8BD46FA
:1031E40080BDC0467C0000207800002080B584B0FB
:1031F40000AF786000F088FA3B1C0833181C00F01C
:10320400A7FA031C002B04D03B1C0833181C00F045
:1032140035F8BD4604B080BD80B500AF154B1B78B2
:10322400012B0ED002DC002B05D01CE0022B14D0A5
:10323400032B0CD017E0104B1B68181C00F096F9F8
:1032440015E00D4B5B68181C00F090F90FE00A4B79
:10325400DB68181C00F08AF909E0074B9B68181C0E
:1032640000F084F903E0002000F080F9C046BD4678
:1032740080BDC046780000207C00002080B584B06A
:1032840000AF78603B1C0F337A6812781A703B1CCD
:103294000F331B78102B09D93B1C0F331B78142BCD
:1032A40004D87B68181C00F091F846E03B1C0F33EF
:1032B4001B78212B04D17B68181C00F09FF83CE09C
:1032C4003B1C0F331B78402B09D93B1C0F331B7855
:1032D400442B04D87B68181C00F0A2F82DE03B1C9A
:1032E4000F331B78502B09D93B1C0F331B78542BFD
:1032F40004D87B68181C00F0F1F81EE03B1C0F3367
:103304001B78FF2B04D17B68181C00F04FF814E0E5
:103314003B1C0F331B78002B06D17B681B78181CD1
:10332400002100F00DF808E03B1C0F331B78012B43
:1033340003D17B68181C00F00BF9BD4604B080BDB6
:1033440090B587B002AF021C3960FB1D1A70386853
:10335400391C0F313A1C0E323B1C0D333C1C0C340F
:103364000094FFF75DFE2B20FFF736FDFB1D1B7855
:10337400181CFFF731FD3B1C0F331B78181CFFF79B
:103384002BFD3B1C0E331B78181CFFF725FD3B1C43
:103394000D331B78181CFFF71FFD3B1C0C331B78E7
:1033A400181CFFF719FDBD4605B090BD80B500AFF0
:1033B400054B00221A70FFF72FFFFF200021FFF7B3
:1033C400BFFFBD4680BDC0467800002080B582B0F6
:1033D40000AF78607B681B78113BDAB2064B1A7039
:1033E400FFF71AFF7B681B78181C0021FFF7A8FF62
:1033F400BD4602B080BDC0467800002080B582B0D2
:1034040000AF78607B681A78044B1B78101C191C79
:10341400FFF796FFBD4602B080BDC046780000208D
:1034240080B582B000AF78607B681B78422B17D0E0
:1034340002DC412B05D040E0432B2FD0442B1ED07F
:103444003BE07B685A78997809020A43D9780904E1
:103454000A431B791B0613431A1C1F4B1A602CE0EA
:103464007B685A78997809020A43D97809040A438F
:103474001B791B0613431A1C174B5A601DE07B680B
:103484005A78997809020A43D97809040A431B79BE
:103494001B0613431A1C104B5A600EE07B685A78C3
:1034A400997809020A43D97809040A431B791B064F
:1034B40013431A1C084B5A60C046FFF7ADFE064B77
:1034C400181C00F0C9F87B681B78181C0021FFF752
:1034D40037FFBD4602B080BD7C00002080B582B0BD
:1034E40000AF78607B681B78522B11D002DC512B23
:1034F40005D028E0532B1DD0542B12D023E07B6839
:103504001A78124B1B68101C191CFFF719FF1AE0DC
:103514007B681A780D4B5B68101C191CFFF710FFB1
:1035240011E07B681A78094BDB68101C191CFFF743
:1035340007FF08E07B681A78044B9B68101C191C71
:10354400FFF7FEFEC046BD4602B080BD7C000020F1
:1035540080B582B000AF78607B681B78181C0021AE
:10356400FFF7EEFEBD4602B080BDC04690B587B001
:1035740002AF78607868391C0F313A1C0E323B1C5C
:103584000D333C1C0C340094FFF74AFD3B1C0F33F5
:103594001A783B1C08331A703B1C0E331A783B1CF8
:1035A40008335A703B1C0D331A783B1C08339A704D
:1035B4003B1C0F331B78181CFFF7FCFC3B1C0E3321
:1035C4001B78181CFFF708FD3B1C0D331B78181CD7
:1035D400FFF714FDBD4605B090BDC04680B588B068
:1035E40000AF7860164B1B7801225340DBB2002BEE
:1035F40001D000F059F83B1C0C33181C1421FFF7C0
:1036040017FA3B1C0C331A680E4B9A4209D17A689C
:103614003B1C0C330433101C191C102200F03AF923
:103624000BE07B68084A1A607B68084A5A607B682A
:10363400074A9A607B68074ADA60BD4608B080BDD5
:103644008C0000204C636552FFAFAFAFFF00FFDD7D
:10365400FF0000FFFFFF000080B588B000AF786076
:103664000F4B1B7801225340DBB2002B01D000F03A
:103674001BF83B1C0C331A1D7B68101C191C1022F0
:1036840000F008F93B1C0C33064A1A603B1C0C334F
:10369400181C1421FFF75AF9BD4608B080BDC04676
:1036A4008C0000204C63655280B500AF034B0122AF
:1036B4001A70FFF745F9BD4680BDC0468C00002056
:1036C40080B500AF0A4A0B4B101C191C0122802341
:1036D400FFF7CAFC084B00221A70084B084A1A600C
:1036E400084B181CFFF76CFBFFF7F0FABD4680BDD2
:1036F4001C0100209C0000209800002034010020C0
:10370400B53700089137000880B582B000AF05E0F6
:103714000C4B1B68FA1D1278101C98470A4AFB1DB3
:10372400101C191CFFF7FEFC031C002B06D0074BD2
:103734001B7801225340DBB2002BE9D1BD4602B015
:1037440080BDC046340100201C01002098000020E8
:1037540080B582B000AF78600A4B1B78002B0BD089
:10376400084B00221A707A68074B101C191C082297
:1037740000F090F8012300E00023181CBD4602B0BD
:1037840080BDC046980000209000002080B582B023
:1037940000AF021CFB1D1A70044AFB1D101C191CEF
:1037A400FFF790FCBD4602B080BDC0461C0100205E
:1037B40080B582B000AF021CFB1D1A70FB1D1B7884
:1037C4003A2B02D1024B034A1A60BD4602B080BDB7
:1037D40034010020DD37000880B582B000AF021C40
:1037E400FB1D1A70074BFA1D12781A70064B074A14
:1037F4001A60074B00221A70024B00225A60BD4621
:1038040002B080BD90000020340100201938000867
:103814003001002090B585B000AF021CFB1D1A706A
:10382400174B1A783B1C0F3304218A1A1A70154B54
:103834005A683B1C0F331B78FF21081C9840031C5B
:10384400F91D0878391C0F310978041C8C40211C9F
:103854000B401A430B4B5A60094B1B780133DAB205
:10386400074B1A70064B1B78032B05D9064B012214
:103874001A70064B064A1A60BD4605B090BDC04694
:103884003001002090000020980000203401002026
:10389400B5370008F0B50F2A35D9031C0B439C0734
:1038A40035D1161C103E36093501451910350C1C4E
:1038B400031C27681F6067685F60A7689F60E768EC
:1038C4001034DF601033AB42F3D1731C1B01C518F5
:1038D400C9180F231340032B1BD91C1FA408013440
:1038E400A4000023CE58EE500433A342FAD1ED18BD
:1038F400C91803231A4005D00023CC5CEC540133CF
:103904009342FAD1F0BD051C002AF5D1FAE7051C53
:10391400F2E71A1CF8E7C0462E2E2F2E2E2F6578BC
:10392400742D7372632F53544D3332463078785F5D
:103934005374645065726970685F44726976657225
:103944002F7372632F73746D3332663078785F72BD
:1039540063632E63000000002E2E2F2E2E2F657819
:10396400742D7372632F53544D3332463078785F1D
:103974005374645065726970685F447269766572E5
:103984002F7372632F73746D3332663078785F6788
:1039940070696F2E630000002E2E2F2E2E2F657857
:1039A400742D7372632F53544D3332463078785FDD
:1039B4005374645065726970685F447269766572A5
:1039C4002F7372632F73746D3332663078785F6D42
:1039D4006973632E630000002E2E2F2E2E2F657820
:1039E400742D7372632F53544D3332463078785F9D
:1039F4005374645065726970685F44726976657265
:103A04002F7372632F73746D3332663078785F6608
:103A14006C6173682E6300002E2E2F2E2E2F657876
:103A2400742D7372632F53544D3332463078785F5C
:103A34005374645065726970685F44726976657224
:103A44002F7372632F73746D3332663078785F74BA
:103A5400696D2E63000000002E2E2F2E2E2F657808
:103A6400742D7372632F53544D3332463078785F1C
:103A74005374645065726970685F447269766572E4
:103A84002F7372632F73746D3332663078785F648A
:103A94006D612E63000000002E2E2F2E2E2F6578D0
:103AA400742D7372632F53544D3332463078785FDC
:103AB4005374645065726970685F447269766572A4
:103AC4002F7372632F73746D3332663078785F7539
:083AD400736172742E6300009F
:103ADC0000000000010203040102030406070809A8
:040000050800016589
:00000001FF
