:020000040800F2
:10000000002000208D03000829110008311100088C
:1000100000000000000000000000000000000000E0
:10002000000000000000000000000000391100087E
:100030000000000000000000411100084911000804
:10004000D5030008D5030008D5030008D503000830
:10005000D5030008D5030008D5030008D503000820
:10006000D5030008D5030008D5030008D503000810
:10007000D5030008D5030008D5030008D503000800
:10008000D5030008D503000800000000D5030008D0
:10009000D5030008D5030008D5030008D5030008E0
:1000A000D5030008D5030008D5030008D5030008D0
:1000B000D503000800000000D50300080000000080
:0400C0005FF808F1EC
:1000C400002934D00123002210B488422CD3012407
:1000D4002407A14204D2814202D209011B01F8E79C
:1000E400E400A14204D2814202D249005B00F8E755
:1000F400884201D3401A1A434C08A04202D3001B81
:100104005C0822438C08A04202D3001B9C082243B3
:10011400CC08A04202D3001BDC082243002803D0F1
:100124001B0901D00909E3E7101C10BC7047002823
:1001340001D00020C04307B4024802A14018029035
:1001440003BDC046190000000029F0D003B5FFF735
:10015400B9FF0EBC4243891A1847C0467047C046CF
:1001640080B584B000AF021CFB1D1A70FB1D1A7809
:10017400164B9200D358181C012100F0C7FAFB1D3E
:100184001A78134B5200D35A1A1C3B1C08331A60BA
:100194003B1C083301221A713B1C083300229A715C
:1001A4003B1C08330022DA713B1C083303225A71CA
:1001B400FB1D1A78074B9200D2583B1C0833101CC5
:1001C400191C00F027FBBD4604B080BD981200083E
:1001D400941200080000002080B582B000AF021C19
:1001E400FB1D1A70FB1D1A78054B9200D358FA1D9B
:1001F4001178044A49008A5A9A61BD4602B080BD0A
:10020400000000209412000880B582B000AF021CE8
:10021400FB1D1A70FB1D1A78054B9200D358FA1D6A
:100224001178044A49008A5A1A85BD4602B080BD35
:10023400000000209412000880B582B000AF021CB8
:10024400FB1D1A70FB1D1A780A4B9200D358FA1D35
:100254001178084A89008A58928A91B2FA1D107856
:10026400054A4000825A4A4092B29A82BD4602B080
:1002740080BDC046000000209412000880B588B0FC
:1002840000AF0A1CFB1D011C1970BB1D1A708023D2
:100294009B02181C012100F039FA0120012100F011
:1002A40077FA3B1C183300221A713B1C18330022C6
:1002B400DA7101231A1C3B1C18331A60FB1D1A78CF
:1002C400244B9200D2583B1C1833101C191C00F00C
:1002D400A1FABB1D1B78012B38D10023DAB200230D
:1002E400DBB2101C191C00F0B3FC01231A1C3B1CCC
:1002F40010331A603B1C103300221A71FB1D1B784B
:10030400002B04D03B1C103308225A7103E03B1C21
:1003140010330C225A713B1C103301229A713B1C7E
:100324001033181C00F03CFD0523DAB23B1C0C33DF
:100334001A703B1C0C3303225A703B1C0C330122F1
:100344009A703B1C0C33181C00F014FCBD4608B01A
:1003540080BDC0460800002080B582B000AF021CFA
:10036400FB1D1A70FB1D1A78064B9200D25801230C
:10037400101C191C00F05CFB031C181CBD4602B0C9
:1003840080BDC04608000020002103E00B4B5B58F1
:10039400435004310A480B4B42189A42F6D30A4A96
:1003A40003E0002313600423D218084B9A42F8D3C5
:1003B40000F010F800F034FE70470000A0120008AE
:1003C400000000201C0000201C000020240000204D
:1003D400FEE7000080B500AF1B4B1B4A12680121E9
:1003E4000A431A60184B184A5168184A0A405A605E
:1003F400154B154A1168164A0A401A60124B124AE4
:100404001168144A0A401A600F4B0F4A5168124A85
:100414000A405A600C4B0C4AD26A0F218A43DA62B2
:10042400094B094A116B0D4A0A401A63064B064AE6
:10043400526B01218A435A63034B00229A6000F0F5
:100444000FF8BD4680BDC046001002400CB8FFF84E
:10045400FFFFF6FEFFFFFBFFFFFFC0FFACFEFFFF49
:1004640080B582B000AF00237B6000233B60314B3A
:10047400304A1268802149020A431A602D4B1A68D7
:1004840080239B0213403B607B6801337B603B68A5
:10049400002B04D17A68A023DB009A42EED1254BCD
:1004A4001A6880239B02134002D001233B6001E0C1
:1004B40000233B603B68012B38D11F4B11221A608B
:1004C4001C4B1C4A52685A601A4B1A4A52685A60AA
:1004D400184B184A5168194A0A405A60154B154A74
:1004E4005268882149030A435A60124B114A126820
:1004F400802149040A431A60C0460E4B1A688023BF
:100504009B041340F9D00B4B0A4A526803218A43D7
:100514005A60084B074A526802210A435A60C0468F
:10052400044B5A680C231340082BF9D1BD4602B082
:1005340080BDC0460010024000200240FFFFC0FF03
:1005440080B588B000AF78600023FB610023BB61F5
:1005540000237B6100233B610023FB60654B5A68E9
:100564000C231340FB61FB69042B07D0082B09D033
:10057400002B30D17B68604A1A6030E07B685E4AA9
:100584001A602CE05B4B5A68F0239B031340BB6159
:10059400584B5A6880235B0213407B61BB699B0CF8
:1005A4000233BB617B69002B05D1BB69534A5A43B3
:1005B4007B681A6013E04F4BDA6A0F231340013350
:1005C4003B614D483969FFF77BFD031CBA695A4307
:1005D4007B681A6003E07B68474A1A60C046454B53
:1005E4005A68F0231340FB61FB691B09FB61444A11
:1005F400FB69D3181B78DBB2FB607B681A68FB6865
:10060400DA407B685A603B4B5A68E023DB001340B6
:10061400FB61FB691B0AFB61394AFB69D3181B7830
:10062400DBB2FB607B685A68FB68DA407B689A60DF
:10063400304B1A6B80235B00134003D17B68314A33
:10064400DA6010E02B4B5A688023DB01134005D19C
:100654007B689B685A087B68DA6004E07B689B6867
:100664009A087B68DA60234B1A6B4023134003D14A
:100674007B68254A1A6103E07B68802212021A61B2
:100684001C4B1A6B1023134003D17B681A4A5A611E
:1006940003E07B681A687B685A61164B1A6B032364
:1006A400134004D17B689A687B689A611EE0114B01
:1006B4001A6B03231340012B04D17B681A687B68EF
:1006C4009A6113E00B4B1A6B03231340022B04D1E2
:1006D4007B68802212029A6108E0064B1A6B03239E
:1006E4001340032B02D17B68034A9A61BD4608B0CC
:1006F40080BDC0460010024000127A0000093D008F
:100704000C000020809FD5001280000080B582B0CC
:1007140000AF78600A1CFB1C1A707A68174B1340F0
:1007240002D17B68002B05D1154A164B101C191CED
:1007340000F0F2FCFB1C1B78002B09D0FB1C1B787F
:10074400012B05D00E4A104B101C191C00F0E4FCC0
:10075400FB1C1B78002B06D00C4B0C4A51697A68A1
:100764000A435A6106E0094B084A52697968C94349
:100774000A405A61BD4602B080BDC046AAFFA1FE30
:10078400541100088D0400008E0400000010024083
:1007940080B582B000AF78600A1CFB1C1A707A68BE
:1007A400174B134002D17B68002B05D1154A164B19
:1007B400101C191C00F0B0FCFB1C1B78002B09D08A
:1007C400FB1C1B78012B05D00E4A104B101C191C66
:1007D40000F0A2FCFB1C1B78002B06D00C4B0C4A2F
:1007E40091697A680A439A6106E0094B084A92695A
:1007F4007968C9430A409A61BD4602B080BDC046CB
:10080400FEA5B8FF54110008B1040000B2040000B2
:100814000010024080B586B000AF786039600023D4
:100824007B6100233B610023FB607A689023DB0536
:100834009A4214D07A68794B9A4210D07A68784BED
:100844009A420CD07A68774B9A4208D07A68764BF1
:100854009A4204D0754B181CA72100F05DFC3B683C
:100864001B68002B04D1714B181CA82100F054FC08
:100874003B681B79002B10D03B681B79012B0CD0F3
:100884003B681B79022B08D03B681B79032B04D0EF
:10089400664B181CA92100F03FFC3B68DB79002B58
:1008A4000CD03B68DB79012B08D03B68DB79022B49
:1008B40004D05E4B181CAA2100F02EFC00237B619F
:1008C400A4E07B690122101C9840031C3B613B6837
:1008D4001B683A691340FB60FA683B699A4200D08E
:1008E40091E03B681B79012B03D03B681B79022BF9
:1008F40056D13B685B79012B0CD03B685B79022BAA
:1009040008D03B685B79032B04D0484B181CBA21F0
:1009140000F002FC7B689B687A6952000321081C82
:100924009040021CD2431A407B689A607B689A68A4
:100934003B685B79191C7B695B00081C9840031CAD
:100944001A437B689A603B689B79002B08D03B680C
:100954009B79012B04D0354B181CC12100F0DCFB22
:100964007B689B889BB27A6992B20121081C9040F3
:10097400021C92B2D24392B213409AB27B689A801C
:100984007B689B889AB23B689B79191C7B699BB2F4
:10099400081C9840031C9BB213439AB27B689A804C
:1009A4007B681B687A6952000321081C9040021C72
:1009B400D2431A407B681A607B681A683B681B79CB
:1009C400191C7B695B00081C9840031C1A437B6854
:1009D4001A607B68DB687A6992B252000321081CB2
:1009E4009040021CD2431A407B68DA607B68DA6864
:1009F4003B68DB79191C7B695B00081C9840031C6D
:100A04001A437B68DA607B6901337B617B690F2B56
:100A140000D856E7BD4606B080BDC0460004004875
:100A240000080048000C0048001400489411000815
:100A340080B584B000AF78600A1CBB1C1A803B1CD4
:100A44000F3300221A707A689023DB059A4216D07D
:100A54007A68434B9A4212D07A68424B9A420ED03B
:100A64007A68414B9A420AD07A68404B9A4206D03F
:100A74003F4A90235B00101C191C00F04DFBBB1C6B
:100A84001B88012B52D0BB1C1B88022B4ED0BB1CD5
:100A94001B88042B4AD0BB1C1B88082B46D0BB1CCC
:100AA4001B88102B42D0BB1C1B88202B3ED0BB1CA8
:100AB4001B88402B3AD0BB1C1B88802B36D0BB1C18
:100AC4001A8880235B009A4230D0BB1C1A8880238A
:100AD4009B009A422AD0BB1C1A888023DB009A42CE
:100AE40024D0BB1C1A8880231B019A421ED0BB1C35
:100AF4001A8880235B019A4218D0BB1C1A88802371
:100B04009B019A4212D0BB1C1A888023DB019A42B3
:100B14000CD0BB1C1A8880231B029A4206D0144AAC
:100B24002223FF33101C191C00F0F6FA7B681B8A81
:100B34009BB2BA1C128813409BB2002B04D03B1CFE
:100B44000F3301221A7003E03B1C0F3300221A708A
:100B54003B1C0F331B78181CBD4604B080BDC04637
:100B64000004004800080048000C00480014004835
:100B74009411000880B584B000AF78600023FB6056
:100B84007B689B78002B08D07B689B78012B04D072
:100B94002D4B181C542100F0BFFA7B685B78032BA3
:100BA40004D9294B181C552100F0B6FA7B689B78B0
:100BB400002B3CD0254B7A6812789208D2B2C0320E
:100BC4009200D358FB607B681B781A1C03231340E4
:100BD400DB00FF22101C9840031CDA43FB6813401F
:100BE400FB607B685B789A01FF231A407B681B7863
:100BF400191C03230B40DB00111C99400B1CFA68E1
:100C04001343FB60114B7A6812789208D2B2C03257
:100C14009200F968D1500D4B7A681278111C1F228A
:100C24000A400121081C9040021C1A6009E0074A8E
:100C34007B681B78191C1F230B40012199408023DA
:100C4400D150BD4604B080BDD411000800E100E0DD
:100C5400B0B584B000AF0A1CFB1D011C1970BB1D8C
:100C64001A700023FB60FB1D1B78002B14D0FB1DA6
:100C74001B78012B10D0FB1D1B78022B0CD0FB1D05
:100C84001B78032B08D0FB1D1B78052B04D0424B8B
:100C9400181CDA2100F040FABB1D1B78002B40D051
:100CA400BB1D1B78012B3CD0BB1D1B78022B38D0FD
:100CB400BB1D1B78032B34D0BB1D1B78042B30D0F9
:100CC400BB1D1B78052B2CD0BB1D1B78062B28D0F5
:100CD400BB1D1B78072B24D0BB1D1B78082B20D0F1
:100CE400BB1D1B78092B1CD0BB1D1B780A2B18D0ED
:100CF400BB1D1B780B2B14D0BB1D1B780C2B10D0E9
:100D0400BB1D1B780D2B0CD0BB1D1B780E2B08D0E4
:100D1400BB1D1B780F2B04D01F4B181CDB2100F0CC
:100D2400FBF9BB1D1A78032313409B000F22111CEF
:100D340099400B1CFB60194BBA1D12789208D2B271
:100D44001649B81D00788008C0B2023080004158AE
:100D5400F868C043014002329200D1500F4BBA1DD3
:100D640012789208D2B20D49B81D00788008C0B23A
:100D7400023080004058F91D0C78B91D0D7803210C
:100D840029408900251C8D40291C01430232920010
:100D9400D150BD4604B0B0BD14120008000001409B
:100DA40080B584B000AF78600023FB607B681B795A
:100DB400002B08D07B681B79042B04D04A4B181CE9
:100DC400862100F0A9F97B685B79082B0CD07B683D
:100DD4005B790C2B08D07B685B79102B04D0424BD9
:100DE400181C872100F098F97B681A683F4B134060
:100DF40003D17B681B68002B04D13B4B181C882152
:100E040000F08AF97B689B79002B08D07B689B797A
:100E1400012B04D0344B181C892100F07DF9344B8C
:100E2400FB607B689B79002B4DD0314B304A1168B5
:100E34007A681268D2430A401A602D4B2C4A5168D2
:100E44007A681268D2430A405A607B681B79FA6850
:100E5400D318FB60FB68FA6811687A6812680A4361
:100E64001A60234B224A91687A681268D2430A4076
:100E74009A601F4B1E4AD1687A681268D2430A40AE
:100E8400DA607B685B79102B0ED1194B184A916894
:100E94007A6812680A439A60154B154AD1687A68D1
:100EA40012680A43DA601BE0114BFB607B685B79D4
:100EB400FA68D318FB60FB68FA6811687A681268EC
:100EC4000A431A600CE07B681B79FA68D318FB604C
:100ED400FB68FA6811687A681268D2430A401A609B
:100EE400BD4604B080BDC04654120008000014F58D
:100EF40000040140B0B582B000AF021C3960FB1D94
:100F04001A70FB1D1B787F2B32D93049FB1D1B78CF
:100F14001A1C0F231340083B98082C4AFB1D1B780E
:100F24001C1C0F232340083B9B0806339B00D3184B
:100F34005B68FA1D1278141C03222240D200FF249D
:100F4400251C95402A1CD2431A403B689C01FF2370
:100F54001C40FB1D1B781D1C03232B40DB00251CA0
:100F64009D402B1C1A43831D9B00CB185A6029E01B
:100F7400174BFA1D127852B292081549F81D0078E1
:100F840040B28008C03080004158F81D0078041C2D
:100F940003202040C000FF24251C8540281CC0439A
:100FA400084039688C01FF210C40F91D09780D1C9B
:100FB40003212940C900251C8D40291C0143C0324E
:100FC4009200D150BD4602B0B0BDC04600ED00E075
:100FD40000E100E080B582B000AF78607A680E4B23
:100FE4009A4201D9012312E00C4B7A681202120AC8
:100FF400013A5A6001235B42181C0321FFF77AFF70
:10100400064B00229A60054B07221A600023181C25
:10101400BD4602B080BDC046FFFFFF0010E000E007
:1010240080B588B000AF0020FFF79AF80120FFF7E1
:1010340097F800200021FFF721F93B1D181CFFF74A
:101044007FFA3B1D5B68181CFA239900FFF738F8F8
:10105400031C181CFFF7BEFF1D4B01221A70002051
:10106400FFF77AF9031C012B17D10120FFF7B4F81D
:10107400FA239B00181C00F02DF80120FFF7C4F898
:10108400134B1B780133DAB2114B1A70104B1B78D7
:10109400032B02D10E4B00221A700D4B1B78022B2E
:1010A40006D10020FFF7C8F8642000F013F80EE022
:1010B400074B1B78012B06D10020FFF7BDF8C82091
:1010C40000F008F803E00020FFF79EF8C7E7C6E742
:1010D4002000002080B582B000AF78607A68054BAC
:1010E4001A60C046034B1B68002BFBD1BD4602B0FF
:1010F40080BDC0461C00002080B500AF054B1B68B6
:10110400002B04D0034B1B685A1E024B1A60BD46C9
:1011140080BDC0461C00002080B582B000AF78605E
:101124003960FEE780B500AFBD4680BD80B500AF35
:10113400FEE7C04680B500AFBD4680BD80B500AFB8
:10114400BD4680BD80B500AFFFF7D6FFBD4680BD6C
:101154002E2E2F2E2E2F6578742D7372632F5354D9
:101164004D3332463078785F5374645065726970D9
:10117400685F4472697665722F7372632F73746D3E
:101184003332663078785F7263632E630000000048
:101194002E2E2F2E2E2F6578742D7372632F535499
:1011A4004D3332463078785F537464506572697099
:1011B400685F4472697665722F7372632F73746DFE
:1011C4003332663078785F6770696F2E6300000091
:1011D4002E2E2F2E2E2F6578742D7372632F535459
:1011E4004D3332463078785F537464506572697059
:1011F400685F4472697665722F7372632F73746DBE
:101204003332663078785F6D6973632E6300000053
:101214002E2E2F2E2E2F6578742D7372632F535418
:101224004D3332463078785F537464506572697018
:10123400685F4472697665722F7372632F73746D7D
:101244003332663078785F7379736366672E630030
:101254002E2E2F2E2E2F6578742D7372632F5354D8
:101264004D3332463078785F5374645065726970D8
:10127400685F4472697665722F7372632F73746D3D
:101284003332663078785F657874692E63000000C5
:0C1294000002000100000800000008003B
:1012A0000008004800080048000000480000000056
:0C12B00001020304010203040607080900
:040000050800038D5F
:00000001FF
